{
  "contractName": "CoShoe",
  "abi": [
    {
      "constant": true,
      "inputs": [
        {
          "name": "",
          "type": "uint256"
        }
      ],
      "name": "shoes",
      "outputs": [
        {
          "name": "owner",
          "type": "address"
        },
        {
          "name": "name",
          "type": "string"
        },
        {
          "name": "image",
          "type": "string"
        },
        {
          "name": "sold",
          "type": "bool"
        }
      ],
      "payable": false,
      "stateMutability": "view",
      "type": "function"
    },
    {
      "inputs": [],
      "payable": false,
      "stateMutability": "nonpayable",
      "type": "constructor"
    },
    {
      "constant": true,
      "inputs": [],
      "name": "getNumberofTokens",
      "outputs": [
        {
          "name": "counts",
          "type": "uint256"
        }
      ],
      "payable": false,
      "stateMutability": "view",
      "type": "function"
    },
    {
      "constant": false,
      "inputs": [
        {
          "name": "_name",
          "type": "string"
        },
        {
          "name": "_image",
          "type": "string"
        }
      ],
      "name": "buyShoe",
      "outputs": [
        {
          "name": "",
          "type": "uint256"
        }
      ],
      "payable": true,
      "stateMutability": "payable",
      "type": "function"
    },
    {
      "constant": true,
      "inputs": [],
      "name": "checkPurchases",
      "outputs": [
        {
          "name": "",
          "type": "bool[]"
        }
      ],
      "payable": false,
      "stateMutability": "view",
      "type": "function"
    }
  ],
  "bytecode": "0x60806040526706f05b59d3b200006000556000600155600060025534801561002657600080fd5b506000600190505b6064811161017e57600360405180608001604052803373ffffffffffffffffffffffffffffffffffffffff168152602001604051806020016040528060008152508152602001604051806020016040528060008152508152602001600015158152509080600181540180825580915050906001820390600052602060002090600402016000909192909190915060008201518160000160006101000a81548173ffffffffffffffffffffffffffffffffffffffff021916908373ffffffffffffffffffffffffffffffffffffffff160217905550602082015181600101908051906020019061011e929190610184565b50604082015181600201908051906020019061013b929190610184565b5060608201518160030160006101000a81548160ff021916908315150217905550505050600260008154809291906001019190505550808060010191505061002e565b50610229565b828054600181600116156101000203166002900490600052602060002090601f016020900481019282601f106101c557805160ff19168380011785556101f3565b828001600101855582156101f3579182015b828111156101f25782518255916020019190600101906101d7565b5b5090506102009190610204565b5090565b61022691905b8082111561022257600081600090555060010161020a565b5090565b90565b610990806102386000396000f3fe60806040526004361061003f5760003560e01c80634fb7bb1314610044578063540a2f4f1461006f578063558a2b8b146101d5578063607473cf14610241575b600080fd5b34801561005057600080fd5b5061005961039f565b6040518082815260200191505060405180910390f35b6101bf6004803603604081101561008557600080fd5b81019080803590602001906401000000008111156100a257600080fd5b8201836020820111156100b457600080fd5b803590602001918460018302840111640100000000831117156100d657600080fd5b91908080601f016020809104026020016040519081016040528093929190818152602001838380828437600081840152601f19601f8201169050808301925050505050505091929192908035906020019064010000000081111561013957600080fd5b82018360208201111561014b57600080fd5b8035906020019184600183028401116401000000008311171561016d57600080fd5b91908080601f016020809104026020016040519081016040528093929190818152602001838380828437600081840152601f19601f8201169050808301925050505050505091929192905050506103ac565b6040518082815260200191505060405180910390f35b3480156101e157600080fd5b506101ea610667565b6040518080602001828103825283818151815260200191508051906020019060200280838360005b8381101561022d578082015181840152602081019050610212565b505050509050019250505060405180910390f35b34801561024d57600080fd5b5061027a6004803603602081101561026457600080fd5b8101908080359060200190929190505050610725565b604051808573ffffffffffffffffffffffffffffffffffffffff1673ffffffffffffffffffffffffffffffffffffffff168152602001806020018060200184151515158152602001838103835286818151815260200191508051906020019080838360005b838110156102fa5780820151818401526020810190506102df565b50505050905090810190601f1680156103275780820380516001836020036101000a031916815260200191505b50838103825285818151815260200191508051906020019080838360005b83811015610360578082015181840152602081019050610345565b50505050905090810190601f16801561038d5780820380516001836020036101000a031916815260200191505b50965050505050505060405180910390f35b6000600380549050905090565b60006003805490506001541061042a576040517f08c379a00000000000000000000000000000000000000000000000000000000081526004018080602001828103825260188152602001807f6578636565646564206e756d626572206f662073686f6573000000000000000081525060200191505060405180910390fd5b60005434146104a1576040517f08c379a000000000000000000000000000000000000000000000000000000000815260040180806020018281038252601b8152602001807f56616c7565206973206e6f7420657175616c20746f207072696365000000000081525060200191505060405180910390fd5b60006001805401905060001515600382815481106104bb57fe5b906000526020600020906004020160030160009054906101000a900460ff1615151461054f576040517f08c379a00000000000000000000000000000000000000000000000000000000081526004018080602001828103825260148152602001807f73686f6520686173206265656e20626f7567687400000000000000000000000081525060200191505060405180910390fd5b336003828154811061055d57fe5b906000526020600020906004020160000160006101000a81548173ffffffffffffffffffffffffffffffffffffffff021916908373ffffffffffffffffffffffffffffffffffffffff16021790555083600382815481106105ba57fe5b906000526020600020906004020160010190805190602001906105de9291906108bf565b5082600382815481106105ed57fe5b906000526020600020906004020160020190805190602001906106119291906108bf565b5060016003828154811061062157fe5b906000526020600020906004020160030160006101000a81548160ff02191690831515021790555060016000815480929190600101919050555060015491505092915050565b60608060008090505b60038054905081101561071d573373ffffffffffffffffffffffffffffffffffffffff16600382815481106106a157fe5b906000526020600020906004020160000160009054906101000a900473ffffffffffffffffffffffffffffffffffffffff1673ffffffffffffffffffffffffffffffffffffffff1614156107105760018282815181106106fd57fe5b6020026020010190151590811515815250505b8080600101915050610670565b508091505090565b6003818154811061073257fe5b90600052602060002090600402016000915090508060000160009054906101000a900473ffffffffffffffffffffffffffffffffffffffff1690806001018054600181600116156101000203166002900480601f0160208091040260200160405190810160405280929190818152602001828054600181600116156101000203166002900480156108045780601f106107d957610100808354040283529160200191610804565b820191906000526020600020905b8154815290600101906020018083116107e757829003601f168201915b505050505090806002018054600181600116156101000203166002900480601f0160208091040260200160405190810160405280929190818152602001828054600181600116156101000203166002900480156108a25780601f10610877576101008083540402835291602001916108a2565b820191906000526020600020905b81548152906001019060200180831161088557829003601f168201915b5050505050908060030160009054906101000a900460ff16905084565b828054600181600116156101000203166002900490600052602060002090601f016020900481019282601f1061090057805160ff191683800117855561092e565b8280016001018555821561092e579182015b8281111561092d578251825591602001919060010190610912565b5b50905061093b919061093f565b5090565b61096191905b8082111561095d576000816000905550600101610945565b5090565b9056fea165627a7a723058200213dee039cbad9d2f86f765d06e4ee39a6ec65f8b6b0d13858d73db7b9c45070029",
  "source": "pragma solidity^0.5.0;\n\ncontract CoShoe {\n\n    struct Shoe {\n        address payable owner; //address of the owner\n        string name; //name of owner\n        string image; //url of the image\n        bool sold;\n    }\n\n    uint256 price = 5*10**17;\n    uint256 shoesSold = 0;\n    uint256 count = 0;\n\n    Shoe[] public shoes;\n\n    constructor() public {\n        for (uint i = 1; i <= 100; i++) {\n        shoes.push(Shoe(msg.sender, \"\",\"\",false));\n        count++;\n        }\n    }\n\n    function getNumberofTokens() public view returns(uint counts) {\n        return shoes.length;\n    }\n\n    function buyShoe(string memory _name, string memory _image) public payable returns(uint){ //used to be external payable\n        \n        require(shoesSold < shoes.length, \"exceeded number of shoes\");\n        require(msg.value == price, \"Value is not equal to price\");\n        \n        uint256 i = shoesSold + 1;\n        require(shoes[i].sold == false,'shoe has been bought');\n        \n        shoes[i].owner = msg.sender;\n        shoes[i].name = _name;\n        shoes[i].image = _image;\n        shoes[i].sold = true;\n        shoesSold++;\n        return shoesSold;\n    }\n\n\n\n    function checkPurchases() external view returns (bool[] memory){\n        bool[] memory checkPurchase;\n        for (uint256 i = 0; i < shoes.length; i++){\n            if (shoes[i].owner == msg.sender){\n                checkPurchase[i] = true;\n            }\n        }\n        return checkPurchase;\n    }\n\n}",
  "sourcePath": "/Users/admin/Documents/FinTech-Take-Home/contracts/CoShoe.sol",
  "compiler": {
    "name": "solc",
    "version": "0.5.8+commit.23d335f2.Emscripten.clang"
  },
  "schemaVersion": "3.0.11",
  "updatedAt": "2019-08-04T22:36:13.574Z",
  "devdoc": {
    "methods": {}
  },
  "userdoc": {
    "methods": {}
  }
}