{
  "contractName": "CoShoe",
  "abi": [
    {
      "constant": true,
      "inputs": [
        {
          "name": "",
          "type": "uint256"
        }
      ],
      "name": "shoes",
      "outputs": [
        {
          "name": "owner",
          "type": "address"
        },
        {
          "name": "name",
          "type": "string"
        },
        {
          "name": "image",
          "type": "string"
        },
        {
          "name": "sold",
          "type": "bool"
        }
      ],
      "payable": false,
      "stateMutability": "view",
      "type": "function"
    },
    {
      "inputs": [],
      "payable": false,
      "stateMutability": "nonpayable",
      "type": "constructor"
    },
    {
      "constant": true,
      "inputs": [],
      "name": "getNumberofTokens",
      "outputs": [
        {
          "name": "count",
          "type": "uint256"
        }
      ],
      "payable": false,
      "stateMutability": "view",
      "type": "function"
    },
    {
      "constant": false,
      "inputs": [
        {
          "name": "_name",
          "type": "string"
        },
        {
          "name": "_image",
          "type": "string"
        }
      ],
      "name": "buyShoe",
      "outputs": [],
      "payable": true,
      "stateMutability": "payable",
      "type": "function"
    },
    {
      "constant": true,
      "inputs": [],
      "name": "checkPurchases",
      "outputs": [
        {
          "name": "",
          "type": "bool[]"
        }
      ],
      "payable": false,
      "stateMutability": "view",
      "type": "function"
    }
  ],
  "bytecode": "0x60806040526706f05b59d3b200006000556000600155600060025534801561002657600080fd5b506000600190505b6064811161016c57600360405180608001604052803373ffffffffffffffffffffffffffffffffffffffff168152602001604051806020016040528060008152508152602001604051806020016040528060008152508152602001600015158152509080600181540180825580915050906001820390600052602060002090600402016000909192909190915060008201518160000160006101000a81548173ffffffffffffffffffffffffffffffffffffffff021916908373ffffffffffffffffffffffffffffffffffffffff160217905550602082015181600101908051906020019061011e929190610172565b50604082015181600201908051906020019061013b929190610172565b5060608201518160030160006101000a81548160ff021916908315150217905550505050808060010191505061002e565b50610217565b828054600181600116156101000203166002900490600052602060002090601f016020900481019282601f106101b357805160ff19168380011785556101e1565b828001600101855582156101e1579182015b828111156101e05782518255916020019190600101906101c5565b5b5090506101ee91906101f2565b5090565b61021491905b808211156102105760008160009055506001016101f8565b5090565b90565b610c01806102266000396000f3fe60806040526004361061003f5760003560e01c80634fb7bb1314610044578063540a2f4f1461006f578063558a2b8b146101c1578063607473cf1461022d575b600080fd5b34801561005057600080fd5b5061005961038b565b6040518082815260200191505060405180910390f35b6101bf6004803603604081101561008557600080fd5b81019080803590602001906401000000008111156100a257600080fd5b8201836020820111156100b457600080fd5b803590602001918460018302840111640100000000831117156100d657600080fd5b91908080601f016020809104026020016040519081016040528093929190818152602001838380828437600081840152601f19601f8201169050808301925050505050505091929192908035906020019064010000000081111561013957600080fd5b82018360208201111561014b57600080fd5b8035906020019184600183028401116401000000008311171561016d57600080fd5b91908080601f016020809104026020016040519081016040528093929190818152602001838380828437600081840152601f19601f820116905080830192505050505050509192919290505050610398565b005b3480156101cd57600080fd5b506101d6610858565b6040518080602001828103825283818151815260200191508051906020019060200280838360005b838110156102195780820151818401526020810190506101fe565b505050509050019250505060405180910390f35b34801561023957600080fd5b506102666004803603602081101561025057600080fd5b8101908080359060200190929190505050610916565b604051808573ffffffffffffffffffffffffffffffffffffffff1673ffffffffffffffffffffffffffffffffffffffff168152602001806020018060200184151515158152602001838103835286818151815260200191508051906020019080838360005b838110156102e65780820151818401526020810190506102cb565b50505050905090810190601f1680156103135780820380516001836020036101000a031916815260200191505b50838103825285818151815260200191508051906020019080838360005b8381101561034c578082015181840152602081019050610331565b50505050905090810190601f1680156103795780820380516001836020036101000a031916815260200191505b50965050505050505060405180910390f35b6000600380549050905090565b600054341461040f576040517f08c379a000000000000000000000000000000000000000000000000000000000815260040180806020018281038252601b8152602001807f56616c7565206973206e6f7420657175616c20746f207072696365000000000081525060200191505060405180910390fd5b60008090505b60038054905081101561085357600015156003828154811061043357fe5b906000526020600020906004020160030160009054906101000a900460ff161515141561084657336003828154811061046857fe5b906000526020600020906004020160000160006101000a81548173ffffffffffffffffffffffffffffffffffffffff021916908373ffffffffffffffffffffffffffffffffffffffff16021790555082600382815481106104c557fe5b906000526020600020906004020160010190805190602001906104e9929190610ab0565b5081600382815481106104f857fe5b9060005260206000209060040201600201908051906020019061051c929190610ab0565b5060016003828154811061052c57fe5b906000526020600020906004020160030160006101000a81548160ff021916908315150217905550600360405180608001604052806003848154811061056e57fe5b906000526020600020906004020160000160009054906101000a900473ffffffffffffffffffffffffffffffffffffffff1673ffffffffffffffffffffffffffffffffffffffff168152602001600384815481106105c857fe5b90600052602060002090600402016001018054600181600116156101000203166002900480601f01602080910402602001604051908101604052809291908181526020018280546001816001161561010002031660029004801561066d5780601f106106425761010080835404028352916020019161066d565b820191906000526020600020905b81548152906001019060200180831161065057829003601f168201915b505050505081526020016003848154811061068457fe5b90600052602060002090600402016002018054600181600116156101000203166002900480601f0160208091040260200160405190810160405280929190818152602001828054600181600116156101000203166002900480156107295780601f106106fe57610100808354040283529160200191610729565b820191906000526020600020905b81548152906001019060200180831161070c57829003601f168201915b505050505081526020016003848154811061074057fe5b906000526020600020906004020160030160009054906101000a900460ff1615158152509080600181540180825580915050906001820390600052602060002090600402016000909192909190915060008201518160000160006101000a81548173ffffffffffffffffffffffffffffffffffffffff021916908373ffffffffffffffffffffffffffffffffffffffff16021790555060208201518160010190805190602001906107f2929190610b30565b50604082015181600201908051906020019061080f929190610b30565b5060608201518160030160006101000a81548160ff0219169083151502179055505050506001600081548092919060010191905055505b8080600101915050610415565b505050565b60608060008090505b60038054905081101561090e573373ffffffffffffffffffffffffffffffffffffffff166003828154811061089257fe5b906000526020600020906004020160000160009054906101000a900473ffffffffffffffffffffffffffffffffffffffff1673ffffffffffffffffffffffffffffffffffffffff1614156109015760018282815181106108ee57fe5b6020026020010190151590811515815250505b8080600101915050610861565b508091505090565b6003818154811061092357fe5b90600052602060002090600402016000915090508060000160009054906101000a900473ffffffffffffffffffffffffffffffffffffffff1690806001018054600181600116156101000203166002900480601f0160208091040260200160405190810160405280929190818152602001828054600181600116156101000203166002900480156109f55780601f106109ca576101008083540402835291602001916109f5565b820191906000526020600020905b8154815290600101906020018083116109d857829003601f168201915b505050505090806002018054600181600116156101000203166002900480601f016020809104026020016040519081016040528092919081815260200182805460018160011615610100020316600290048015610a935780601f10610a6857610100808354040283529160200191610a93565b820191906000526020600020905b815481529060010190602001808311610a7657829003601f168201915b5050505050908060030160009054906101000a900460ff16905084565b828054600181600116156101000203166002900490600052602060002090601f016020900481019282601f10610af157805160ff1916838001178555610b1f565b82800160010185558215610b1f579182015b82811115610b1e578251825591602001919060010190610b03565b5b509050610b2c9190610bb0565b5090565b828054600181600116156101000203166002900490600052602060002090601f016020900481019282601f10610b7157805160ff1916838001178555610b9f565b82800160010185558215610b9f579182015b82811115610b9e578251825591602001919060010190610b83565b5b509050610bac9190610bb0565b5090565b610bd291905b80821115610bce576000816000905550600101610bb6565b5090565b9056fea165627a7a7230582068d82a25b2313ec13703d2ea34bcd3c2f3bef800d3856e107a480b90cdc55b1e0029",
  "source": "pragma solidity^0.5.0;\n\ncontract CoShoe {\n\n    struct Shoe {\n        address payable owner; //address of the owner\n        string name; //name of owner\n        string image; //url of the image\n        bool sold;\n    }\n\n    uint256 price = 5*10**17;\n    uint256 shoesSold = 0;\n    uint256 count = 0;\n\n    Shoe[] public shoes;\n\n    constructor() public {\n        for (uint i = 1; i <= 100; i++) {\n        shoes.push(Shoe(msg.sender, \"\",\"\",false));\n        }\n    }\n\n    function getNumberofTokens() public view returns(uint count) {\n        return shoes.length;\n    }\n\n    function buyShoe(string memory _name, string memory _image) public payable { //used to be external payable\n        //require(shoes.length >0, \"Shoes array is full\");\n        //require(Shoe.sold == true)\n        require(msg.value == price, \"Value is not equal to price\");\n\n        for (uint256 i = 0; i < shoes.length; i++) {\n        if(shoes[i].sold == false)\n            {\n                shoes[i].owner = msg.sender;\n                shoes[i].name = _name;\n                shoes[i].image = _image;\n                shoes[i].sold = true;\n                shoes.push(Shoe(shoes[i].owner, shoes[i].name,shoes[i].image,shoes[i].sold));\n                shoesSold++;\n                \n            } \n        }\n\n    }\n\n    function checkPurchases() external view returns (bool[] memory){\n        bool[] memory checkPurchase;\n        for (uint256 i = 0; i < shoes.length; i++){\n            if (shoes[i].owner == msg.sender){\n                checkPurchase[i] = true;\n            }\n        }\n        return checkPurchase;\n    }\n\n}",
  "sourcePath": "/Users/admin/Documents/FinTech-Take-Home/contracts/CoShoe.sol",
  "compiler": {
    "name": "solc",
    "version": "0.5.8+commit.23d335f2.Emscripten.clang"
  },
  "schemaVersion": "3.0.11",
  "updatedAt": "2019-08-04T01:54:27.889Z",
  "devdoc": {
    "methods": {}
  },
  "userdoc": {
    "methods": {}
  }
}